{
  "contractName": "EventStore",
  "abi": [
    {
      "constant": true,
      "inputs": [],
      "name": "creator",
      "outputs": [
        {
          "name": "",
          "type": "address"
        }
      ],
      "payable": false,
      "type": "function",
      "stateMutability": "view"
    },
    {
      "constant": true,
      "inputs": [],
      "name": "blockCreatedOn",
      "outputs": [
        {
          "name": "",
          "type": "uint256"
        }
      ],
      "payable": false,
      "type": "function",
      "stateMutability": "view"
    },
    {
      "constant": false,
      "inputs": [
        {
          "name": "id1",
          "type": "uint256"
        },
        {
          "name": "id2",
          "type": "uint256"
        },
        {
          "name": "id3",
          "type": "uint256"
        }
      ],
      "name": "log",
      "outputs": [
        {
          "name": "",
          "type": "bool"
        }
      ],
      "payable": false,
      "type": "function",
      "stateMutability": "nonpayable"
    },
    {
      "inputs": [],
      "payable": false,
      "type": "constructor",
      "stateMutability": "nonpayable"
    },
    {
      "anonymous": false,
      "inputs": [
        {
          "indexed": false,
          "name": "id1",
          "type": "uint256"
        },
        {
          "indexed": false,
          "name": "id2",
          "type": "uint256"
        },
        {
          "indexed": false,
          "name": "id3",
          "type": "uint256"
        }
      ],
      "name": "GenericEvent",
      "type": "event"
    }
  ],
  "bytecode": "0x6060604052341561000f57600080fd5b336000806101000a81548173ffffffffffffffffffffffffffffffffffffffff021916908373ffffffffffffffffffffffffffffffffffffffff160217905550436001819055506101d2806100656000396000f300606060405260043610610057576000357c0100000000000000000000000000000000000000000000000000000000900463ffffffff16806302d05d3f1461005c57806378f7cac6146100b1578063d1ed7a3c146100da575b600080fd5b341561006757600080fd5b61006f610127565b604051808273ffffffffffffffffffffffffffffffffffffffff1673ffffffffffffffffffffffffffffffffffffffff16815260200191505060405180910390f35b34156100bc57600080fd5b6100c461014c565b6040518082815260200191505060405180910390f35b34156100e557600080fd5b61010d6004808035906020019091908035906020019091908035906020019091905050610152565b604051808215151515815260200191505060405180910390f35b6000809054906101000a900473ffffffffffffffffffffffffffffffffffffffff1681565b60015481565b60007fd558d3fca8fb7d12341de968b9cc753e480e202f5333b2353994f2e650acc6a084848460405180848152602001838152602001828152602001935050505060405180910390a16001905093925050505600a165627a7a7230582035eb3b0def1edd1785d3185178f84508748878aad77f4aaac46a3553aef206690029",
  "source": "pragma solidity ^0.4.4;\n\ncontract EventStore {\n\n    address public creator;\n\tuint public blockCreatedOn;\n\n\tevent GenericEvent(uint256 id1, uint256 id2, uint256 id3);\n\t\n\n\tfunction EventStore() {\n        creator = msg.sender;\n        blockCreatedOn = block.number;\n\t}\n\n\tfunction log(uint256 id1, uint256 id2, uint256 id3) returns(bool) {\n        GenericEvent(id1,id2,id3);\n\t\treturn true;\n\t}\n\n}\n",
  "sourcePath": "/home/rsb/src/bugmark/eth-es/contracts/EventStore.sol",
  "compiler": {
    "name": "solc",
    "version": "0.4.18+commit.9cf6e910.Emscripten.clang"
  },
  "schemaVersion": "1.0.1",
  "updatedAt": "2017-12-12T06:01:23.720Z"
}