{
  "contractName": "EventStore",
  "abi": [
    {
      "constant": true,
      "inputs": [],
      "name": "creator",
      "outputs": [
        {
          "name": "",
          "type": "address"
        }
      ],
      "payable": false,
      "type": "function",
      "stateMutability": "view"
    },
    {
      "constant": false,
      "inputs": [
        {
          "name": "id1",
          "type": "uint256"
        },
        {
          "name": "string1",
          "type": "string"
        }
      ],
      "name": "log",
      "outputs": [
        {
          "name": "",
          "type": "bool"
        }
      ],
      "payable": false,
      "type": "function",
      "stateMutability": "nonpayable"
    },
    {
      "constant": true,
      "inputs": [
        {
          "name": "id1",
          "type": "uint256"
        },
        {
          "name": "id2",
          "type": "uint256"
        },
        {
          "name": "id3",
          "type": "uint256"
        }
      ],
      "name": "blockCreatedOn",
      "outputs": [
        {
          "name": "",
          "type": "uint256"
        }
      ],
      "payable": false,
      "type": "function",
      "stateMutability": "view"
    },
    {
      "inputs": [],
      "payable": false,
      "type": "constructor",
      "stateMutability": "nonpayable"
    },
    {
      "anonymous": false,
      "inputs": [
        {
          "indexed": false,
          "name": "id1",
          "type": "uint256"
        },
        {
          "indexed": false,
          "name": "string1",
          "type": "string"
        },
        {
          "indexed": false,
          "name": "id3",
          "type": "uint256"
        }
      ],
      "name": "GenericEvent",
      "type": "event"
    }
  ],
  "bytecode": "0x6060604052341561000f57600080fd5b336000806101000a81548173ffffffffffffffffffffffffffffffffffffffff021916908373ffffffffffffffffffffffffffffffffffffffff1602179055504360018190555061025f806100656000396000f300606060405260043610610057576000357c0100000000000000000000000000000000000000000000000000000000900463ffffffff16806302d05d3f1461005c578063643fd0df146100b157806378f7cac61461012f575b600080fd5b341561006757600080fd5b61006f610158565b604051808273ffffffffffffffffffffffffffffffffffffffff1673ffffffffffffffffffffffffffffffffffffffff16815260200191505060405180910390f35b34156100bc57600080fd5b610115600480803590602001909190803590602001908201803590602001908080601f0160208091040260200160405190810160405280939291908181526020018383808284378201915050505050509190505061017d565b604051808215151515815260200191505060405180910390f35b341561013a57600080fd5b61014261022d565b6040518082815260200191505060405180910390f35b6000809054906101000a900473ffffffffffffffffffffffffffffffffffffffff1681565b60007f5dc1bc51e9487c8a8e1c89bba2b396efe9d980a3444ec617056910fd5f74b71c83836040518083815260200180602001828103825283818151815260200191508051906020019080838360005b838110156101e85780820151818401526020810190506101cd565b50505050905090810190601f1680156102155780820380516001836020036101000a031916815260200191505b50935050505060405180910390a16001905092915050565b600154815600a165627a7a72305820e60740191576938b416e09f5fec5f1c8a3b57d387b2f08ecdc935ccc4e921d130029",
  "source": "pragma solidity ^0.4.4;\n\ncontract EventStore {\n\n    address public creator;\n\tuint public blockCreatedOn;\n\n\tevent GenericEvent(uint256 id1, string string1);\n\t\n\n\tfunction EventStore() {\n        creator = msg.sender;\n        blockCreatedOn = block.number;\n\t}\n\n\tfunction log(uint256 id1, string string1) returns(bool) {\n        GenericEvent(id1,string1);\n\t\treturn true;\n\t}\n\n}\n",
  "sourcePath": "/home/rsb/src/bugmark/eth-es/contracts/EventStore.sol",
  "compiler": {
    "name": "solc",
    "version": "0.4.18+commit.9cf6e910.Emscripten.clang"
  },
  "schemaVersion": "1.0.1",
  "updatedAt": "2017-12-13T15:45:36.569Z"
}